{
  "contractName": "MetaCoin",
  "abi": [
    {
      "inputs": [],
      "stateMutability": "nonpayable",
      "type": "constructor"
    },
    {
      "inputs": [
        {
          "internalType": "string",
          "name": "produttore",
          "type": "string"
        },
        {
          "internalType": "string",
          "name": "distributore",
          "type": "string"
        },
        {
          "internalType": "string",
          "name": "prodotto",
          "type": "string"
        },
        {
          "internalType": "int256",
          "name": "quantita",
          "type": "int256"
        }
      ],
      "name": "ProduttoreDistributore",
      "outputs": [
        {
          "internalType": "bool",
          "name": "ok",
          "type": "bool"
        }
      ],
      "stateMutability": "nonpayable",
      "type": "function"
    },
    {
      "inputs": [
        {
          "internalType": "string",
          "name": "nomeDistributore",
          "type": "string"
        }
      ],
      "name": "GetProdottiFromDistributore",
      "outputs": [
        {
          "components": [
            {
              "internalType": "string",
              "name": "nome",
              "type": "string"
            },
            {
              "internalType": "int256",
              "name": "quantita",
              "type": "int256"
            },
            {
              "internalType": "string",
              "name": "produttore",
              "type": "string"
            }
          ],
          "internalType": "struct MetaCoin.Prodotto[]",
          "name": "",
          "type": "tuple[]"
        }
      ],
      "stateMutability": "view",
      "type": "function",
      "constant": true
    }
  ],
  "bytecode": "0x608060405234801561001057600080fd5b50610b08806100206000396000f3fe608060405234801561001057600080fd5b50600436106100365760003560e01c806330499d991461003b578063936089ee1461006b575b600080fd5b61005560048036038101906100509190610713565b61009b565b60405161006291906107e9565b60405180910390f35b61008560048036038101906100809190610804565b610332565b60405161009291906109fd565b60405180910390f35b60008060405180606001604052806040518060200160405280600081525081526020016000815260200160405180602001604052806000815250815250905083816000018190525085816040018190525082816020018181525050600080866040516101079190610a5b565b9081526020016040518091039020600001805461012390610aa1565b9050146101c05760008560405161013a9190610a5b565b908152602001604051809103902060020181908060018154018082558091505060019003906000526020600020906003020160009091909190915060008201518160000190805190602001906101919291906104e0565b506020820151816001015560408201518160020190805190602001906101b89291906104e0565b505050610325565b600080866040516101d19190610a5b565b90815260200160405180910390209050858160000190805190602001906101f99291906104e0565b506040518060400160405280600c81526020017f6469737472696275746f726500000000000000000000000000000000000000008152508160010190805190602001906102479291906104e0565b50858160000190805190602001906102609291906104e0565b506040518060400160405280600c81526020017f6469737472696275746f726500000000000000000000000000000000000000008152508160010190805190602001906102ae9291906104e0565b508060020182908060018154018082558091505060019003906000526020600020906003020160009091909190915060008201518160000190805190602001906102f99291906104e0565b506020820151816001015560408201518160020190805190602001906103209291906104e0565b505050505b6001915050949350505050565b60606000826040516103449190610a5b565b9081526020016040518091039020600201805480602002602001604051908101604052809291908181526020016000905b828210156104d557838290600052602060002090600302016040518060600160405290816000820180546103a890610aa1565b80601f01602080910402602001604051908101604052809291908181526020018280546103d490610aa1565b80156104215780601f106103f657610100808354040283529160200191610421565b820191906000526020600020905b81548152906001019060200180831161040457829003601f168201915b505050505081526020016001820154815260200160028201805461044490610aa1565b80601f016020809104026020016040519081016040528092919081815260200182805461047090610aa1565b80156104bd5780601f10610492576101008083540402835291602001916104bd565b820191906000526020600020905b8154815290600101906020018083116104a057829003601f168201915b50505050508152505081526020019060010190610375565b505050509050919050565b8280546104ec90610aa1565b90600052602060002090601f01602090048101928261050e5760008555610555565b82601f1061052757805160ff1916838001178555610555565b82800160010185558215610555579182015b82811115610554578251825591602001919060010190610539565b5b5090506105629190610566565b5090565b5b8082111561057f576000816000905550600101610567565b5090565b6000604051905090565b600080fd5b600080fd5b600080fd5b600080fd5b6000601f19601f8301169050919050565b7f4e487b7100000000000000000000000000000000000000000000000000000000600052604160045260246000fd5b6105ea826105a1565b810181811067ffffffffffffffff82111715610609576106086105b2565b5b80604052505050565b600061061c610583565b905061062882826105e1565b919050565b600067ffffffffffffffff821115610648576106476105b2565b5b610651826105a1565b9050602081019050919050565b82818337600083830152505050565b600061068061067b8461062d565b610612565b90508281526020810184848401111561069c5761069b61059c565b5b6106a784828561065e565b509392505050565b600082601f8301126106c4576106c3610597565b5b81356106d484826020860161066d565b91505092915050565b6000819050919050565b6106f0816106dd565b81146106fb57600080fd5b50565b60008135905061070d816106e7565b92915050565b6000806000806080858703121561072d5761072c61058d565b5b600085013567ffffffffffffffff81111561074b5761074a610592565b5b610757878288016106af565b945050602085013567ffffffffffffffff81111561077857610777610592565b5b610784878288016106af565b935050604085013567ffffffffffffffff8111156107a5576107a4610592565b5b6107b1878288016106af565b92505060606107c2878288016106fe565b91505092959194509250565b60008115159050919050565b6107e3816107ce565b82525050565b60006020820190506107fe60008301846107da565b92915050565b60006020828403121561081a5761081961058d565b5b600082013567ffffffffffffffff81111561083857610837610592565b5b610844848285016106af565b91505092915050565b600081519050919050565b600082825260208201905092915050565b6000819050602082019050919050565b600081519050919050565b600082825260208201905092915050565b60005b838110156108b3578082015181840152602081019050610898565b838111156108c2576000848401525b50505050565b60006108d382610879565b6108dd8185610884565b93506108ed818560208601610895565b6108f6816105a1565b840191505092915050565b61090a816106dd565b82525050565b6000606083016000830151848203600086015261092d82826108c8565b91505060208301516109426020860182610901565b506040830151848203604086015261095a82826108c8565b9150508091505092915050565b60006109738383610910565b905092915050565b6000602082019050919050565b60006109938261084d565b61099d8185610858565b9350836020820285016109af85610869565b8060005b858110156109eb57848403895281516109cc8582610967565b94506109d78361097b565b925060208a019950506001810190506109b3565b50829750879550505050505092915050565b60006020820190508181036000830152610a178184610988565b905092915050565b600081905092915050565b6000610a3582610879565b610a3f8185610a1f565b9350610a4f818560208601610895565b80840191505092915050565b6000610a678284610a2a565b915081905092915050565b7f4e487b7100000000000000000000000000000000000000000000000000000000600052602260045260246000fd5b60006002820490506001821680610ab957607f821691505b602082108103610acc57610acb610a72565b5b5091905056fea2646970667358221220080211b3463f7947b30314b4afdd54f2e7c2893e1fe79edcdf6d788a15fdea2b64736f6c634300080d0033",
  "immutableReferences": {},
  "source": "\n// SPDX-License-Identifier: MIT\n// Tells the Solidity compiler to compile only from v0.8.13 to v0.9.0\npragma solidity ^0.8.13;\n\nimport \"./ConvertLib.sol\";\n\n// This is just a simple example of a coin-like contract.\n// It is not ERC20 compatible and cannot be expected to talk to other\n// coin/token contracts.\n\ncontract MetaCoin {\n\n//le variabili definite all'interno del contratto sono archiviate\n//nella blockchain\n\n/*\nSe stessimo parlando di una filiera agroalimentare, allora cosa dovrebbe essere\narchiviato nella blockchain?\n1) ruolo del partecipante (produttore, distributore, negoziante)\n2) id del partecipante\n3) prodotto trasferito da sorgente a destinazione.\nEsempio: patate, 100kg, De Cupis, Antonelli. Oppure\npatate, 20Kg, Antonelli, Marciniewski\n\ndovremmo quindi definire un mapping tra partecipante e elenco dei prodotti in suo possesso\nPer potremmo anche dire la seguente cosa\nDe Cupis produce 100kg di patate e quindi De Cupis assegna a questi 100kg di patate\nun ID unico (es: IDP011)\n{key: IPD011, valore: {tipo: patata, quantit: 100kg}}\n\nForse potremmo avere il partecipante come chiave\nTransazione: de cupis fornisce 100 kg di patate a antonelli\nrisultato: k: Antonelli, ruolo: distributore, prodotti:[{patate, 100kg, de cupis}, {fave, 7 kg, krytowski}, ...]\n\nTransazione: antonelli vende 10 kg di patate prodotte da de cupis a Marciniewsky\nRisultato\nk: Antonelli, ruolo: distributore, prodotti:[{patate, 90kg, de cupis}, {fave, 7 kg, krytowski}, ...]\nk: Marciniewski, ruolo: negoziante, prodotti:[{patate, 10kg, Antonelli}, {fave, 1 kg, Morjani}, ...]\n\n\nQuando marciniewski vende le patate, allora\nTransazione: marciniewski vende 1kg di patate (lo verifichiamo dallo scontrino)\nRisultato:\nk: Marciniewski, ruolo: negoziante, prodotti:[{patate, 9kg, Antonelli}, {fave, 1 kg, Morjani}, ...]\n\nmapping (address => uint) balances;\n\n*/\nstruct Prodotto {\nstring nome;\nint quantita;\nstring produttore;\n}\n\n//I partecipanti, li indirizziamo per CF\nstruct Partecipante {\nstring nome;\nstring ruolo;\nProdotto[] prodotti;\n}\n\n//string  il nome del partecipante\nmapping (string => Partecipante) partecipanti;\n\nstring[] produttori;\nstring[] distributori;\nstring[] negozianti;\n\n//event Transfer(address indexed _from, address indexed _to, uint256 _value);\n\nconstructor() {\n//per ora nessuna inizializzazione\n}\n\n//transazione: un produttore fornisce una certa quantit di prodotto a un distributore\nfunction ProduttoreDistributore(string memory produttore, string memory distributore, string memory prodotto, int quantita) public returns(bool ok) {\nProdotto memory pr = Prodotto(\"\", 0, \"\");\npr.nome = prodotto;\npr.produttore = produttore;\npr.quantita = quantita;\n\n//devo verificare che il distributore sia nei partecipanti\nif (bytes(partecipanti[distributore].nome).length != 0) {\npartecipanti[distributore].prodotti.push(pr);\n} else {\n//se non c' lo aggiunge\nPartecipante storage par = partecipanti[distributore];\npar.nome = distributore;\npar.ruolo = \"distributore\";\npar.nome = distributore;\npar.ruolo = \"distributore\";\npar.prodotti.push(pr);\n}\nreturn true;\n}\n\nfunction GetProdottiFromDistributore(string memory nomeDistributore) public view returns (Prodotto[] memory) {\n        return partecipanti[nomeDistributore].prodotti;\n    }\n\n// function sendCoin(address receiver, uint amount) public returns(bool sufficient) {\n// if (balances[msg.sender] < amount) return false;\n// balances[msg.sender] -= amount;\n// balances[receiver] += amount;\n// emit Transfer(msg.sender, receiver, amount);\n// return true;\n// }\n\n// function getBalanceInEth(address addr) public view returns(uint){\n// return ConvertLib.convert(getBalance(addr),2);\n// }\n\n// function getBalance(address addr) public view returns(uint) {\n// return balances[addr];\n// }\n}",
  "sourcePath": "/home/joao/Documents/GitHub/ITS.CyberSec.Esercitazione/Sicurezza2_10/Blockchain/MetaCoin/contracts/MetaCoin.sol",
  "compiler": {
    "name": "solc",
    "version": "0.8.13+commit.abaa5c0e.Emscripten.clang"
  },
  "schemaVersion": "3.4.16",
  "updatedAt": "2025-03-14T12:02:08.605Z",
  "networkType": "ethereum",
  "devdoc": {
    "kind": "dev",
    "methods": {},
    "version": 1
  },
  "userdoc": {
    "kind": "user",
    "methods": {},
    "version": 1
  }
}